:070DDF00202020202020004D
:100D9A0075A0FFC295D296D297AFA07E00C297EFF8
:030DAA0020E7F44B
:010DAD002223
:100D4E00C296C2978FA07F017E00120D61D2977F4F
:030D5E00017E0013
:0B0D6100EF1FAC0670011E4C70F62264
:100D06007F387E00120DD07F0C7E00120DD07F063C
:100D16007E00120DD07F017E00120DD07BFF7A0D72
:080D260079DFE4FDFF0209DAA8
:080DD000C295120D4EC29722DC
:060DC200120800FF7E0094
:080DC800D295120D4EC29722D4
:070DD8007F017E00020DD037
:0209DA008F4F3D
:1009DC00E4F550120D9AEDD394014003020A7AE526
:1009EC004F940F4003020A7AEDC394015040120851
:1009FC0000607BC37410954FFFE550C39FE55050CA
:100A0C00102480FFE433FE7C00EF254FFFEC3E808A
:100A1C000B254FFFE433CF24B0CF3400FE120DD0A2
:100A2C00120DC2740129F9E43AFA055080C012087B
:100A3C0000603BC37410954FFFE550C39FE55050C9
:100A4C001024C0FFE433FE7C00EF254FFFEC3E800A
:100A5C000B254FFFE433CF2470CF3400FE120DD0A2
:0E0A6C00120DC2740129F9E43AFA055080C057
:010A7A002259
:100DAE00566F6963653A0064420054313A0054321A
:040DBE003A00730084
:100CDD00015D00015C00025E000102600001025A2C
:020CED00000005
:10093400120D85E4F5B0120D06120C208F5D7BFFBD
:100944007A0D79AEE4FDFF1209DA7BFF7A0D79B5F1
:10095400E4FD7F0B1209DA7BFF7A0D79B87D017F04
:10096400021209DA7BFF7A0D79BC7D017F08120936
:10097400DAAF5DE4FCFDFE120A7BE4FD7F07120999
:10098400DAE55DD3940A401ED28CAE5EAF5FE4FC20
:10099400FD120A7B7552FF75530D7554C0120B9FDF
:1009A4007D017F058023E55DD394144021D28CAE74
:1009B40060AF61E4FCFD120A7B7552FF75530D753F
:1009C40054C0120B9F7D017F0A1209DA8002C28C87
:0609D400120CA902093D0E
:100D8500E58954F04401F589758A18758CEFC28D93
:050D9500D2AFD2A9223B
:03000B00020C7272
:040C7200C0E0C0D04E
:100C7600758CFC758A18C28D055BE55B7002055A9A
:100C8600B4E81BE55AB40316755A00755B00055F98
:0E0C9600E55F7002055E0561E56170020560B4
:050CA400D0D0D0E032C9
:100CEF00143B0000000000000000000000000000A6
:060CFF00000000000000EF
:100A7B008F528E518D508C4FE4F526740A2526F833
:100A8B00E4F60526E526B414F2855209E4F508E5EB
:100A9B0009600A75F00A84F509050880F2E4F52669
:100AAB00E526C395085039E47B0AFAF9F8AF52AE44
:100ABB0051AD50AC4F120882EB2430FF7427252622
:100ACB00F8A607AF52AE51AD50AC4FE47B0AFAF922
:100ADB00F81208828F528E518D508C4F052680C094
:100AEB00E4F526E526C395085017C3E5089526FFC0
:100AFB0074262FF8E6FF740A2526F8A6070526802C
:080B0B00E27B007A00790A2266
:100D6C008F658E648D638C62786274FF120916EC49
:090D7C004D4E4F60030080F0228F
:060D2E008B578A58895919
:100D3400E4FFAB57AA58A959EFFD3395E08D82F52E
:090D44008312081960030F80E915
:010D4D002283
:060B9F008B4F8A508951C2
:100BA500E4F555F556FEAB4FAA50A951120D2EC3CB
:100BB500EF6480F8E5566480985023AB4FAA50A99E
:100BC50051AF560556EFFD3395E08D82F58312083A
:100BD50019FFAD550555743B2DF8A60780C8AB52D6
:100BE500AA53A954120D2EC3EF6480F8EE648098C1
:100BF5005022AB52AA53A954AF060EEFFD3395E030
:100C05008D82F583120819FFAD550555743B2DF8F6
:0A0C1500A60780CA7B007A00793B35
:010C1F0022B2
:100CA900855DB030B20530B002D2B130B30530B194
:100CB90002D2B230B40530B202D2B330B50530B386
:100CC90002D2B430B60530B402D2B530B70530B56A
:040CD90002D2B6226B
:070DE600D290C291C29222DB
:100C2000120DE6C290D292D29100C291D29200D21D
:100C30009100C291C29200D29100C291D292E4FF7F
:100C4000D29100C291EE25E0FE3092034306010FDF
:100C5000BF08EDE4FFEDC313FD309203430580D2DE
:100C60009100C2910FBF08EDEEB50503FF80027F32
:010C70000083
:010C71002260
:03000000020B13DD
:0C0B1300787FE4F6D8FD758165020B5A6E
:10080000BB010689828A83E0225002E722BBFE02F6
:09081000E32289828A83E4932229
:10081900BB010CE58229F582E5833AF583E0225094
:1008290006E92582F8E622BBFE06E92582F8E222DE
:0D083900E58229F582E5833AF583E49322F8
:1008460075F008758200EF2FFFEE33FECD33CDCC69
:1008560033CCC58233C5829BED9AEC99E5829840EC
:100866000CF582EE9BFEED9AFDEC99FC0FD5F0D6C9
:10087600E4CEFBE4CDFAE4CCF9A88222B800C1B9F3
:100886000059BA002DEC8BF084CFCECDFCE5F0CB31
:10089600F97818EF2FFFEE33FEED33FDEC33FCEB6A
:1008A60033FB10D703994004EB99FB0FD8E5E4F925
:1008B600FA227818EF2FFFEE33FEED33FDEC33FC12
:1008C600C933C910D7059BE99A4007EC9BFCE99A06
:1008D600F90FD8E0E4C9FAE4CCFB2275F010EF2F4B
:1008E600FFEE33FEED33FDCC33CCC833C810D7074B
:1008F6009BEC9AE899400AED9BFDEC9AFCE899F886
:0E0906000FD5F0DAE4CDFBE4CCFAE4C8F92218
:100914007401FF3395E0FEFDFC080808E6CF2FF6CE
:1009240018E6CE3EF618E6CD3DF618E6CC3CF622A7
:100B1F00020934E493A3F8E493A34003F68001F2AF
:100B2F0008DFF48029E493A3F85407240CC8C333D7
:100B3F00C4540F4420C8834004F456800146F6DFA6
:100B4F00E4800B0102040810204080900CDDE47E4D
:100B5F00019360BCA3FF543F30E509541FFEE4939B
:100B6F00A360010ECF54C025E060A840B8E493A362
:100B7F00FAE493A3F8E493A3C8C582C8CAC583CA8D
:100B8F00F0A3C8C582C8CAC583CADFE9DEE780BE45
:010D050000ED
:00000001FF
