:100C73000237000002390000023B0000023D000081
:100C23007FE87E0330900930910630920320933D94
:100C3300EF1FAC0670011E4C70F62090097537004B
:100C43007538017F0122209109753900753A027FB9
:100C53000222209209753B00753C037F03222093F7
:0F0C630009753D00753E047F04227F00227F004B
:010C7200225F
:070DCB002020202020200061
:100D8C007580FFC2A6D2A5D2A7AF807E00C2A7EF06
:030D9C0020E7F459
:010D9F002231
:100D5900C2A5C2A78F807F017E00120D6CD2A77F2A
:030D6900017E0008
:0B0D6C00EF1FAC0670011E4C70F62259
:100D0F007F387E00120DBC7F0C7E00120DBC7F065B
:100D1F007E00120DBC7F017E00120DBC7BFF7A0D91
:080D2F0079CBE4FDFF0209A5E8
:080DBC00C2A6120D59C2A722C4
:060DA000120A46FF7E006E
:080DA600D2A6120D59C2A722CA
:070DC4007F017E00020DBC5F
:0209A5008F437E
:1009A700E4F544120D8CEDD394014003020A45E5AA
:1009B70043940F4003020A45EDC394015040120AC5
:1009C70046607BC374109543FFE544C39FE54450DD
:1009D700102480FFE433FE7C00EF2543FFEC3E80CC
:1009E7000B2543FFE433CF24B0CF3400FE120DBCF8
:1009F700120DA0740129F9E43AFA054480C0120ADD
:100A070046603BC374109543FFE544C39FE54450DC
:100A17001024C0FFE433FE7C00EF2543FFEC3E804B
:100A27000B2543FFE433CF2470CF3400FE120DBCF7
:0E0A3700120DA0740129F9E43AFA054480C0BA
:010A4500228E
:100BCA0057616974696E672E2E2E005072657373B1
:100BDA002053746172740053656C656374204D6FA1
:100BEA0064653A0048492F4D45442F4C4544004D11
:100BFA006F64653A2048490054696D653A0073008C
:100C0A004D6F64653A204D4544004D6F64653A2046
:090C1A004C4F57004F7665720043
:070C8300023F0000014100E7
:10080000C294D2B2120DAE120D77120D0F7BFF7A89
:100810000B79CA7D017F051209A57BFF7A0B79D57B
:10082000E4FDFF1209A5120C23BF0420754101123B
:100830000DC47BFF7A0B79E1E4FD7F021209A57BF1
:10084000FF7A0B79EE7D017F021209A5E541640173
:100850006003020974120C23EF64017032120DC49C
:100860007BFF7A0B79F9E4FD7F021209A57BFF7A01
:100870000C79027D017F021209A57BFF7A0C7908B1
:100880007D017F0C1209A5753F0075400980721229
:100890000C23EF64027032120DC47BFF7A0C790ACC
:1008A000E4FD7F021209A57BFF7A0C79027D017FAE
:1008B000021209A57BFF7A0C79087D017F0C1209D1
:1008C000A5753F007540058038120C23EF64037056
:1008D00037120DC47BFF7A0C7914E4FD7F021209F4
:1008E000A57BFF7A0C79027D017F021209A57BFFAF
:1008F0007A0C79087D017F0C1209A5753F007540BF
:1009000003E4F50CF50DD28EAF0DAE0C120B607D2D
:10091000017F081209A5E53864014537700EE50D21
:10092000643C450C7006F537F538802AE53A6402D8
:100930004539700EE50D641E450C7006F539F53A23
:100940008014E53C6403453B702AE50D6414450CB6
:100950007022F53BF53CC28EF50CF50D120DC47BF3
:10096000FF7A0C791EE4FD7F051209A5E4F53FF539
:1009700040754201E54164016003020826E54264D6
:10098000016003020826C2B2B2947FC27E01FDFC60
:10099000120D37D2B2C2947FC27E017D007C00125C
:0509A0000D37020826DE
:100C8A00140E000000000000000000000000000038
:100C9A000000000000001423000000000000000013
:0C0CAA000000000000000000000000003E
:100B60008E438F44E4F522740E2522F8E4F6052224
:100B7000E522B414F2854409E4F508E509600A7534
:100B8000F00A84F509050880F2E4F522E522C39510
:100B9000085030AE43AF447C007D0A120A5FED245A
:100BA00030FFE522FDE508C39DFD740D2DF8A60775
:100BB000AE43AF447C007D0A120A5F8E438F44052A
:0A0BC0002280C97B007A00790E2222
:100D37008F468E458D448C43784374FF120AB6EC78
:100D47004D4E4F600C0000000000000000000080C6
:020D5700E72291
:0E0DAE00438910758DFC758B18D2ABD2AF2225
:03001B00020CB71D
:100CB700C0E0C0D0758DFC758B18050BE50B700275
:100CC700050AB4E813E50AB4030E750A00750B00AC
:0D0CD700050DE50D7002050CD0D0D0E03207
:100D7700E58954F04401F589758A18758CEFD28C92
:050D8700D2A9D2AF2249
:03000B00020CE400
:100CE400C0E0C0D0758A18758CEF0547E547D394EA
:100CF4000A4003754700C3E5479540E4953F500417
:0B0D0400D2B78002C2B7D0D0D0E032DE
:03000000020AD41D
:0C0AD400787FE4F6D8FD758147020B1B0B
:100A4600BB010689828A83E0225002E722BBFE02AE
:090A5600E32289828A83E49322E1
:100A5F00BC000BBE0029EF8DF084FFADF022E4CC7B
:100A6F00F875F008EF2FFFEE33FEEC33FCEE9DEC44
:100A7F00984005FCEE9DFE0FD5F0E9E4CEFD22ED8A
:100A8F00F8F5F0EE8420D21CFEADF075F008EF2FD4
:100A9F00FFED33FD4007985006D5F0F222C398FDC5
:050AAF000FD5F0EA2262
:100AB4007401FF3395E0FEFDFC080808E6CF2FF62D
:100AC40018E6CE3EF618E6CD3DF618E6CC3CF62206
:100AE000020800E493A3F8E493A34003F68001F224
:100AF00008DFF48029E493A3F85407240CC8C33317
:100B0000C4540F4420C8834004F456800146F6DFE5
:100B1000E4800B0102040810204080900C73E47EF6
:100B2000019360BCA3FF543F30E509541FFEE493DA
:100B3000A360010ECF54C025E060A840B8E493A3A1
:100B4000FAE493A3F8E493A3C8C582C8CAC583CACC
:100B5000F0A3C8C582C8CAC583CADFE9DEE780BE84
:010CB600003D
:00000001FF
