:070D5E0020202020202000CE
:100CEB007580FFC2A6D2A5D2A7AF807E00C2A7EFA8
:030CFB0020E7F4FB
:010CFE0022D3
:100C9300C2A5C2A78F807F017E00120CA6D2A77FB8
:030CA300017E00CF
:0B0CA600EF1FAC0670011E4C70F62220
:100C29007F387E00120D4F7F0C7E00120D4F7F061C
:100C39007E00120D4F7F017E00120D4F7BFF7A0D52
:080C4900795EE4FDFF0208BB27
:080D4F00C2A6120C93C2A722F8
:060D3300120800FF7E0023
:080D3900D2A6120C93C2A722FE
:070D57007F017E00020D4F39
:0208BB008F3775
:1008BD00E4F538120CEBEDD39401400302095BE52E
:1008CD0037940F400302095BEDC3940150401208A9
:1008DD0000607BC374109537FFE538C39FE5385032
:1008ED00102480FFE433FE7C00EF2537FFEC3E80C3
:1008FD000B2537FFE433CF24B0CF3400FE120D4F5C
:10090D00120D33740129F9E43AFA053880C0120842
:10091D0000603BC374109537FFE538C39FE5385031
:10092D001024C0FFE433FE7C00EF2537FFEC3E8042
:10093D000B2537FFE433CF2470CF3400FE120D4F5B
:0E094D00120D33740129F9E43AFA053880C01E
:01095B002279
:100CFF0044697374656E63653A005761726E696E0D
:030D0F00673A0040
:040BBA000246000FE0
:1009F000D297D290120C29120D41120BF3BF0115A0
:100A00000547E547700205467F887E137D007C0020
:100A1000120C51801F120BF3BF0219E547154770E6
:100A20000215467F887E137D007C00120C51E5473D
:100A30004546604D120CCE120B0E8B3A8A3B893C18
:100A40007BFF7A0C79FF12095CE4FDFF1208BBAF53
:100A500047AE46120B0E8B3A8A3B893C7BFF7A0DE0
:100A6000790912095C7D01E4FF1208BB120CCEC3A8
:100A7000EF9547EE95465082D28EB296B297020914
:020A8000FA2258
:03001B00020B785D
:100B7800C0E0C0D075D000C000C004C005C006C029
:010B88000765
:100B8900753610753527753400753300C290783382
:100B990074FF12089DEC4D4E4F60030080F0D29017
:020BA900C28EFA
:0F0BAB00D007D006D005D004D000D0D0D0E03293
:080BBE000242000002440000A5
:100BF3007FE87E0330B70320B629EF1FAC067001F0
:100C03001E4C70F620B70B0543E543700205427F87
:100C1300012220B60B0545E545700205447F0222FB
:050C23007F00227F00AC
:010C280022A9
:100BC600140A000000000000000000000000000001
:100BD600000000000000141F0000000000000000DC
:0C0BE60000000000000000000000000003
:0E0D4100438901758CFC758A18D2ABD2AF22A3
:100B0E008E378F38E4F51E740A251EF8E4F6051E9E
:100B1E00E51EB414F2853809E4F508E509600A7596
:100B2E00F00A84F509050880F2E4F51EE51EC3956A
:100B3E00085030AE37AF387C007D0A120846ED24DF
:100B4E0030FFE51EFDE508C39DFD74092DF8A607CF
:100B5E00AE37AF387C007D0A1208468E378F3805C7
:0A0B6E001E80C97B007A00790A227C
:060C73008B3F8A4089411D
:100C7900E4FFAB3FAA40A941EFFD3395E08D82F532
:090C89008312081960030F80E9D1
:010C9200223F
:06095C008B378A3889394F
:10096200E4FEF53DF53EAB37AA38A939120C73C344
:10097200EF6480F8E53D6480985022AB37AA38A92D
:1009820039AF3D053DEFFD3395E08D82F5831208C9
:1009920019FFAD060E741F2DF8A60780C9AB3AAA3F
:1009A2003BA93C120C73C3EF6480F8E53E64809867
:1009B2005022AB3AAA3BA93CAF3E053EEFFD339530
:1009C200E08D82F583120819FFAD060E741F2DF813
:1009D200A60780C9C3EE64809490500BAF060E74D4
:0D09E2001F2FF8762080ED7B007A00791F32
:0109EF0022E5
:100C51008F3A8E398D388C37783774FF12089DECB6
:100C61004D4E4F600C0000000000000000000080AD
:020C7100E72278
:100D1200758901E4F58CF58AD2AFD2A9C28CC2A042
:010D220022AE
:100D2300D2A07F347E077D007C00120C51C2A0222A
:100CB100AF8CEFFEAD8A7C00E42DFFEC3EFEE4F547
:0C0CC1008CF58A7D3A1208468E488F4957
:010CCD002204
:100CCE00120D12120D2330A1FDD28C20A1FDC28C6B
:0D0CDE00120CB1E4F58CF58AAE48AF492246
:03000000020A826F
:0C0A8200787FE4F6D8FD758149020AC9AE
:10080000BB010689828A83E0225002E722BBFE02F6
:09081000E32289828A83E4932229
:10081900BB010CE58229F582E5833AF583E0225094
:1008290006E92582F8E622BBFE06E92582F8E222DE
:0D083900E58229F582E5833AF583E49322F8
:10084600BC000BBE0029EF8DF084FFADF022E4CC96
:10085600F875F008EF2FFFEE33FEEC33FCEE9DEC5F
:10086600984005FCEE9DFE0FD5F0E9E4CEFD22EDA5
:10087600F8F5F0EE8420D21CFEADF075F008EF2FEF
:10088600FFED33FD4007985006D5F0F222C398FDE0
:050896000FD5F0EA227D
:10089B007401FF3395E0FEFDFC080808E6CF2FF648
:1008AB0018E6CE3EF618E6CD3DF618E6CC3CF62221
:100A8E000209F0E493A3F8E493A34003F68001F285
:100A9E0008DFF48029E493A3F85407240CC8C33369
:100AAE00C4540F4420C8834004F456800146F6DF38
:100ABE00E4800B0102040810204080900BBAE47E03
:100ACE00019360BCA3FF543F30E509541FFEE4932D
:100ADE00A360010ECF54C025E060A840B8E493A3F4
:100AEE00FAE493A3F8E493A3C8C582C8CAC583CA1F
:100AFE00F0A3C8C582C8CAC583CADFE9DEE780BED7
:010BF2000002
:00000001FF
